{
  "_format": "hh-sol-artifact-1",
  "contractName": "WEB3ETH",
  "sourceName": "contracts/CoinVest.sol",
  "abi": [
    {
      "inputs": [
        {
          "internalType": "address",
          "name": "coinMintedTo",
          "type": "address"
        },
        {
          "internalType": "address",
          "name": "liquidityWalletFees",
          "type": "address"
        }
      ],
      "stateMutability": "nonpayable",
      "type": "constructor"
    },
    {
      "inputs": [
        {
          "internalType": "address",
          "name": "spender",
          "type": "address"
        },
        {
          "internalType": "uint256",
          "name": "allowance",
          "type": "uint256"
        },
        {
          "internalType": "uint256",
          "name": "needed",
          "type": "uint256"
        }
      ],
      "name": "ERC20InsufficientAllowance",
      "type": "error"
    },
    {
      "inputs": [
        {
          "internalType": "address",
          "name": "sender",
          "type": "address"
        },
        {
          "internalType": "uint256",
          "name": "balance",
          "type": "uint256"
        },
        {
          "internalType": "uint256",
          "name": "needed",
          "type": "uint256"
        }
      ],
      "name": "ERC20InsufficientBalance",
      "type": "error"
    },
    {
      "inputs": [
        {
          "internalType": "address",
          "name": "approver",
          "type": "address"
        }
      ],
      "name": "ERC20InvalidApprover",
      "type": "error"
    },
    {
      "inputs": [
        {
          "internalType": "address",
          "name": "receiver",
          "type": "address"
        }
      ],
      "name": "ERC20InvalidReceiver",
      "type": "error"
    },
    {
      "inputs": [
        {
          "internalType": "address",
          "name": "sender",
          "type": "address"
        }
      ],
      "name": "ERC20InvalidSender",
      "type": "error"
    },
    {
      "inputs": [
        {
          "internalType": "address",
          "name": "spender",
          "type": "address"
        }
      ],
      "name": "ERC20InvalidSpender",
      "type": "error"
    },
    {
      "anonymous": false,
      "inputs": [
        {
          "indexed": true,
          "internalType": "address",
          "name": "owner",
          "type": "address"
        },
        {
          "indexed": true,
          "internalType": "address",
          "name": "spender",
          "type": "address"
        },
        {
          "indexed": false,
          "internalType": "uint256",
          "name": "value",
          "type": "uint256"
        }
      ],
      "name": "Approval",
      "type": "event"
    },
    {
      "anonymous": false,
      "inputs": [
        {
          "indexed": true,
          "internalType": "address",
          "name": "from",
          "type": "address"
        },
        {
          "indexed": true,
          "internalType": "address",
          "name": "to",
          "type": "address"
        },
        {
          "indexed": false,
          "internalType": "uint256",
          "name": "value",
          "type": "uint256"
        }
      ],
      "name": "Transfer",
      "type": "event"
    },
    {
      "inputs": [
        {
          "internalType": "address",
          "name": "owner",
          "type": "address"
        },
        {
          "internalType": "address",
          "name": "spender",
          "type": "address"
        }
      ],
      "name": "allowance",
      "outputs": [
        {
          "internalType": "uint256",
          "name": "",
          "type": "uint256"
        }
      ],
      "stateMutability": "view",
      "type": "function"
    },
    {
      "inputs": [
        {
          "internalType": "address",
          "name": "spender",
          "type": "address"
        },
        {
          "internalType": "uint256",
          "name": "value",
          "type": "uint256"
        }
      ],
      "name": "approve",
      "outputs": [
        {
          "internalType": "bool",
          "name": "",
          "type": "bool"
        }
      ],
      "stateMutability": "nonpayable",
      "type": "function"
    },
    {
      "inputs": [
        {
          "internalType": "address",
          "name": "account",
          "type": "address"
        }
      ],
      "name": "balanceOf",
      "outputs": [
        {
          "internalType": "uint256",
          "name": "",
          "type": "uint256"
        }
      ],
      "stateMutability": "view",
      "type": "function"
    },
    {
      "inputs": [],
      "name": "decimals",
      "outputs": [
        {
          "internalType": "uint8",
          "name": "",
          "type": "uint8"
        }
      ],
      "stateMutability": "view",
      "type": "function"
    },
    {
      "inputs": [],
      "name": "liquidityFeeWallet",
      "outputs": [
        {
          "internalType": "address",
          "name": "",
          "type": "address"
        }
      ],
      "stateMutability": "view",
      "type": "function"
    },
    {
      "inputs": [],
      "name": "name",
      "outputs": [
        {
          "internalType": "string",
          "name": "",
          "type": "string"
        }
      ],
      "stateMutability": "view",
      "type": "function"
    },
    {
      "inputs": [],
      "name": "symbol",
      "outputs": [
        {
          "internalType": "string",
          "name": "",
          "type": "string"
        }
      ],
      "stateMutability": "view",
      "type": "function"
    },
    {
      "inputs": [],
      "name": "totalSupply",
      "outputs": [
        {
          "internalType": "uint256",
          "name": "",
          "type": "uint256"
        }
      ],
      "stateMutability": "view",
      "type": "function"
    },
    {
      "inputs": [
        {
          "internalType": "address",
          "name": "to",
          "type": "address"
        },
        {
          "internalType": "uint256",
          "name": "value",
          "type": "uint256"
        }
      ],
      "name": "transfer",
      "outputs": [
        {
          "internalType": "bool",
          "name": "",
          "type": "bool"
        }
      ],
      "stateMutability": "nonpayable",
      "type": "function"
    },
    {
      "inputs": [
        {
          "internalType": "address",
          "name": "from",
          "type": "address"
        },
        {
          "internalType": "address",
          "name": "to",
          "type": "address"
        },
        {
          "internalType": "uint256",
          "name": "value",
          "type": "uint256"
        }
      ],
      "name": "transferFrom",
      "outputs": [
        {
          "internalType": "bool",
          "name": "",
          "type": "bool"
        }
      ],
      "stateMutability": "nonpayable",
      "type": "function"
    }
  ],
  "bytecode": "0x60806040523480156200001157600080fd5b5060405162001b7438038062001b74833981810160405281019062000037919062000454565b6040518060400160405280600e81526020017f57656233466f756e646174696f6e0000000000000000000000000000000000008152506040518060400160405280600781526020017f57454233455448000000000000000000000000000000000000000000000000008152508160039081620000b4919062000715565b508060049081620000c6919062000715565b505050620000e482683635c9adc5dea000006200012d60201b60201c565b80600560006101000a81548173ffffffffffffffffffffffffffffffffffffffff021916908373ffffffffffffffffffffffffffffffffffffffff1602179055505050620008ff565b600073ffffffffffffffffffffffffffffffffffffffff168273ffffffffffffffffffffffffffffffffffffffff1603620001a25760006040517fec442f050000000000000000000000000000000000000000000000000000000081526004016200019991906200080d565b60405180910390fd5b620001b660008383620001ba60201b60201c565b5050565b600073ffffffffffffffffffffffffffffffffffffffff168373ffffffffffffffffffffffffffffffffffffffff16036200021057806002600082825462000203919062000859565b92505081905550620002e6565b60008060008573ffffffffffffffffffffffffffffffffffffffff1673ffffffffffffffffffffffffffffffffffffffff168152602001908152602001600020549050818110156200029f578381836040517fe450d38c0000000000000000000000000000000000000000000000000000000081526004016200029693929190620008a5565b60405180910390fd5b8181036000808673ffffffffffffffffffffffffffffffffffffffff1673ffffffffffffffffffffffffffffffffffffffff16815260200190815260200160002081905550505b600073ffffffffffffffffffffffffffffffffffffffff168273ffffffffffffffffffffffffffffffffffffffff16036200033157806002600082825403925050819055506200037e565b806000808473ffffffffffffffffffffffffffffffffffffffff1673ffffffffffffffffffffffffffffffffffffffff168152602001908152602001600020600082825401925050819055505b8173ffffffffffffffffffffffffffffffffffffffff168373ffffffffffffffffffffffffffffffffffffffff167fddf252ad1be2c89b69c2b068fc378daa952ba7f163c4a11628f55a4df523b3ef83604051620003dd9190620008e2565b60405180910390a3505050565b600080fd5b600073ffffffffffffffffffffffffffffffffffffffff82169050919050565b60006200041c82620003ef565b9050919050565b6200042e816200040f565b81146200043a57600080fd5b50565b6000815190506200044e8162000423565b92915050565b600080604083850312156200046e576200046d620003ea565b5b60006200047e858286016200043d565b925050602062000491858286016200043d565b9150509250929050565b600081519050919050565b7f4e487b7100000000000000000000000000000000000000000000000000000000600052604160045260246000fd5b7f4e487b7100000000000000000000000000000000000000000000000000000000600052602260045260246000fd5b600060028204905060018216806200051d57607f821691505b602082108103620005335762000532620004d5565b5b50919050565b60008190508160005260206000209050919050565b60006020601f8301049050919050565b600082821b905092915050565b6000600883026200059d7fffffffffffffffffffffffffffffffffffffffffffffffffffffffffffffffff826200055e565b620005a986836200055e565b95508019841693508086168417925050509392505050565b6000819050919050565b6000819050919050565b6000620005f6620005f0620005ea84620005c1565b620005cb565b620005c1565b9050919050565b6000819050919050565b6200061283620005d5565b6200062a6200062182620005fd565b8484546200056b565b825550505050565b600090565b6200064162000632565b6200064e81848462000607565b505050565b5b8181101562000676576200066a60008262000637565b60018101905062000654565b5050565b601f821115620006c5576200068f8162000539565b6200069a846200054e565b81016020851015620006aa578190505b620006c2620006b9856200054e565b83018262000653565b50505b505050565b600082821c905092915050565b6000620006ea60001984600802620006ca565b1980831691505092915050565b6000620007058383620006d7565b9150826002028217905092915050565b62000720826200049b565b67ffffffffffffffff8111156200073c576200073b620004a6565b5b62000748825462000504565b620007558282856200067a565b600060209050601f8311600181146200078d576000841562000778578287015190505b620007848582620006f7565b865550620007f4565b601f1984166200079d8662000539565b60005b82811015620007c757848901518255600182019150602085019450602081019050620007a0565b86831015620007e75784890151620007e3601f891682620006d7565b8355505b6001600288020188555050505b505050505050565b62000807816200040f565b82525050565b6000602082019050620008246000830184620007fc565b92915050565b7f4e487b7100000000000000000000000000000000000000000000000000000000600052601160045260246000fd5b60006200086682620005c1565b91506200087383620005c1565b92508282019050808211156200088e576200088d6200082a565b5b92915050565b6200089f81620005c1565b82525050565b6000606082019050620008bc6000830186620007fc565b620008cb602083018562000894565b620008da604083018462000894565b949350505050565b6000602082019050620008f9600083018462000894565b92915050565b611265806200090f6000396000f3fe608060405234801561001057600080fd5b506004361061009e5760003560e01c806370a082311161006657806370a082311461015d57806395d89b411461018d57806397703936146101ab578063a9059cbb146101c9578063dd62ed3e146101f95761009e565b806306fdde03146100a3578063095ea7b3146100c157806318160ddd146100f157806323b872dd1461010f578063313ce5671461013f575b600080fd5b6100ab610229565b6040516100b89190610cdc565b60405180910390f35b6100db60048036038101906100d69190610d97565b6102bb565b6040516100e89190610df2565b60405180910390f35b6100f96102de565b6040516101069190610e1c565b60405180910390f35b61012960048036038101906101249190610e37565b6102e8565b6040516101369190610df2565b60405180910390f35b610147610317565b6040516101549190610ea6565b60405180910390f35b61017760048036038101906101729190610ec1565b610320565b6040516101849190610e1c565b60405180910390f35b610195610368565b6040516101a29190610cdc565b60405180910390f35b6101b36103fa565b6040516101c09190610efd565b60405180910390f35b6101e360048036038101906101de9190610d97565b610420565b6040516101f09190610df2565b60405180910390f35b610213600480360381019061020e9190610f18565b61053e565b6040516102209190610e1c565b60405180910390f35b60606003805461023890610f87565b80601f016020809104026020016040519081016040528092919081815260200182805461026490610f87565b80156102b15780601f10610286576101008083540402835291602001916102b1565b820191906000526020600020905b81548152906001019060200180831161029457829003601f168201915b5050505050905090565b6000806102c66105c5565b90506102d38185856105cd565b600191505092915050565b6000600254905090565b6000806102f36105c5565b90506103008582856105df565b61030b858585610673565b60019150509392505050565b60006012905090565b60008060008373ffffffffffffffffffffffffffffffffffffffff1673ffffffffffffffffffffffffffffffffffffffff168152602001908152602001600020549050919050565b60606004805461037790610f87565b80601f01602080910402602001604051908101604052809291908181526020018280546103a390610f87565b80156103f05780601f106103c5576101008083540402835291602001916103f0565b820191906000526020600020905b8154815290600101906020018083116103d357829003601f168201915b5050505050905090565b600560009054906101000a900473ffffffffffffffffffffffffffffffffffffffff1681565b60008061042b6105c5565b905061043681610320565b8311610477576040517f08c379a000000000000000000000000000000000000000000000000000000000815260040161046e90611004565b60405180910390fd5b60006064600a856104889190611053565b61049291906110c4565b9050600081856104a291906110f5565b9050600082116104e7576040517f08c379a00000000000000000000000000000000000000000000000000000000081526004016104de90611175565b60405180910390fd5b6104f081610767565b6104f982610767565b610504838783610673565b61053183600560009054906101000a900473ffffffffffffffffffffffffffffffffffffffff1684610673565b6001935050505092915050565b6000600160008473ffffffffffffffffffffffffffffffffffffffff1673ffffffffffffffffffffffffffffffffffffffff16815260200190815260200160002060008373ffffffffffffffffffffffffffffffffffffffff1673ffffffffffffffffffffffffffffffffffffffff16815260200190815260200160002054905092915050565b600033905090565b6105da8383836001610800565b505050565b60006105eb848461053e565b90507fffffffffffffffffffffffffffffffffffffffffffffffffffffffffffffffff811461066d578181101561065d578281836040517ffb8f41b200000000000000000000000000000000000000000000000000000000815260040161065493929190611195565b60405180910390fd5b61066c84848484036000610800565b5b50505050565b600073ffffffffffffffffffffffffffffffffffffffff168373ffffffffffffffffffffffffffffffffffffffff16036106e55760006040517f96c6fd1e0000000000000000000000000000000000000000000000000000000081526004016106dc9190610efd565b60405180910390fd5b600073ffffffffffffffffffffffffffffffffffffffff168273ffffffffffffffffffffffffffffffffffffffff16036107575760006040517fec442f0500000000000000000000000000000000000000000000000000000000815260040161074e9190610efd565b60405180910390fd5b6107628383836109d7565b505050565b6107fd8160405160240161077b9190610e1c565b6040516020818303038152906040527ff82c50f1000000000000000000000000000000000000000000000000000000007bffffffffffffffffffffffffffffffffffffffffffffffffffffffff19166020820180517bffffffffffffffffffffffffffffffffffffffffffffffffffffffff8381831617835250505050610bfc565b50565b600073ffffffffffffffffffffffffffffffffffffffff168473ffffffffffffffffffffffffffffffffffffffff16036108725760006040517fe602df050000000000000000000000000000000000000000000000000000000081526004016108699190610efd565b60405180910390fd5b600073ffffffffffffffffffffffffffffffffffffffff168373ffffffffffffffffffffffffffffffffffffffff16036108e45760006040517f94280d620000000000000000000000000000000000000000000000000000000081526004016108db9190610efd565b60405180910390fd5b81600160008673ffffffffffffffffffffffffffffffffffffffff1673ffffffffffffffffffffffffffffffffffffffff16815260200190815260200160002060008573ffffffffffffffffffffffffffffffffffffffff1673ffffffffffffffffffffffffffffffffffffffff1681526020019081526020016000208190555080156109d1578273ffffffffffffffffffffffffffffffffffffffff168473ffffffffffffffffffffffffffffffffffffffff167f8c5be1e5ebec7d5bd14f71427d1e84f3dd0314c0f7b2291e5b200ac8c7c3b925846040516109c89190610e1c565b60405180910390a35b50505050565b600073ffffffffffffffffffffffffffffffffffffffff168373ffffffffffffffffffffffffffffffffffffffff1603610a29578060026000828254610a1d91906111cc565b92505081905550610afc565b60008060008573ffffffffffffffffffffffffffffffffffffffff1673ffffffffffffffffffffffffffffffffffffffff16815260200190815260200160002054905081811015610ab5578381836040517fe450d38c000000000000000000000000000000000000000000000000000000008152600401610aac93929190611195565b60405180910390fd5b8181036000808673ffffffffffffffffffffffffffffffffffffffff1673ffffffffffffffffffffffffffffffffffffffff16815260200190815260200160002081905550505b600073ffffffffffffffffffffffffffffffffffffffff168273ffffffffffffffffffffffffffffffffffffffff1603610b455780600260008282540392505081905550610b92565b806000808473ffffffffffffffffffffffffffffffffffffffff1673ffffffffffffffffffffffffffffffffffffffff168152602001908152602001600020600082825401925050819055505b8173ffffffffffffffffffffffffffffffffffffffff168373ffffffffffffffffffffffffffffffffffffffff167fddf252ad1be2c89b69c2b068fc378daa952ba7f163c4a11628f55a4df523b3ef83604051610bef9190610e1c565b60405180910390a3505050565b610c1381610c0b610c16610c37565b63ffffffff16565b50565b60006a636f6e736f6c652e6c6f679050600080835160208501845afa505050565b610c42819050919050565b610c4a611200565b565b600081519050919050565b600082825260208201905092915050565b60005b83811015610c86578082015181840152602081019050610c6b565b60008484015250505050565b6000601f19601f8301169050919050565b6000610cae82610c4c565b610cb88185610c57565b9350610cc8818560208601610c68565b610cd181610c92565b840191505092915050565b60006020820190508181036000830152610cf68184610ca3565b905092915050565b600080fd5b600073ffffffffffffffffffffffffffffffffffffffff82169050919050565b6000610d2e82610d03565b9050919050565b610d3e81610d23565b8114610d4957600080fd5b50565b600081359050610d5b81610d35565b92915050565b6000819050919050565b610d7481610d61565b8114610d7f57600080fd5b50565b600081359050610d9181610d6b565b92915050565b60008060408385031215610dae57610dad610cfe565b5b6000610dbc85828601610d4c565b9250506020610dcd85828601610d82565b9150509250929050565b60008115159050919050565b610dec81610dd7565b82525050565b6000602082019050610e076000830184610de3565b92915050565b610e1681610d61565b82525050565b6000602082019050610e316000830184610e0d565b92915050565b600080600060608486031215610e5057610e4f610cfe565b5b6000610e5e86828701610d4c565b9350506020610e6f86828701610d4c565b9250506040610e8086828701610d82565b9150509250925092565b600060ff82169050919050565b610ea081610e8a565b82525050565b6000602082019050610ebb6000830184610e97565b92915050565b600060208284031215610ed757610ed6610cfe565b5b6000610ee584828501610d4c565b91505092915050565b610ef781610d23565b82525050565b6000602082019050610f126000830184610eee565b92915050565b60008060408385031215610f2f57610f2e610cfe565b5b6000610f3d85828601610d4c565b9250506020610f4e85828601610d4c565b9150509250929050565b7f4e487b7100000000000000000000000000000000000000000000000000000000600052602260045260246000fd5b60006002820490506001821680610f9f57607f821691505b602082108103610fb257610fb1610f58565b5b50919050565b7f4e6f7420656e6f7567682062616c616e63650000000000000000000000000000600082015250565b6000610fee601283610c57565b9150610ff982610fb8565b602082019050919050565b6000602082019050818103600083015261101d81610fe1565b9050919050565b7f4e487b7100000000000000000000000000000000000000000000000000000000600052601160045260246000fd5b600061105e82610d61565b915061106983610d61565b925082820261107781610d61565b9150828204841483151761108e5761108d611024565b5b5092915050565b7f4e487b7100000000000000000000000000000000000000000000000000000000600052601260045260246000fd5b60006110cf82610d61565b91506110da83610d61565b9250826110ea576110e9611095565b5b828204905092915050565b600061110082610d61565b915061110b83610d61565b925082820390508181111561112357611122611024565b5b92915050565b7f5468652066656573206172652030000000000000000000000000000000000000600082015250565b600061115f600e83610c57565b915061116a82611129565b602082019050919050565b6000602082019050818103600083015261118e81611152565b9050919050565b60006060820190506111aa6000830186610eee565b6111b76020830185610e0d565b6111c46040830184610e0d565b949350505050565b60006111d782610d61565b91506111e283610d61565b92508282019050808211156111fa576111f9611024565b5b92915050565b7f4e487b7100000000000000000000000000000000000000000000000000000000600052605160045260246000fdfea2646970667358221220bcd73d83a462cb0ac8b0ba80be79d4cc1735c65e2ed9692e6cc0e22ce335527464736f6c63430008180033",
  "linkReferences": {},
  "deployedLinkReferences": {}
}